:100000000C9435000C945D000C945D000C945D0024
:100010000C945D000C945D000C945D000C945D00EC
:100020000C945D000C945D000C945D000C945D00DC
:100030000C945D000C945D000C945D000C945D00CC
:100040000C94D0010C945D000C9440020C941A02A4
:100050000C945D000C945D000C945D000C945D00AC
:100060000C945D000C945D00830311241FBECFEF40
:10007000D8E0DEBFCDBF11E0A0E0B1E0E4EBF7E0F7
:1000800002C005900D92A237B107D9F722E0A2E78E
:10009000B1E001C01D92AC31B207E1F710E0C5E359
:1000A000D0E004C02197FE010E94D203C433D107DF
:1000B000C9F70E9472020C94D8030C9400003FB759
:1000C000F89480917B0190917C01A0917D01B09189
:1000D0007E0126B5A89B05C02F3F19F00196A11DF2
:1000E000B11D3FBFBA2FA92F982F8827BC01CD0182
:1000F000620F711D811D911D42E0660F771F881FE1
:10010000991F4A95D1F708958F929F92AF92BF920F
:10011000CF92DF92EF92FF924B015C010E945F0051
:100120006B017C010E945F006C197D098E099F099B
:10013000683E734081059105A8F321E0821A910879
:10014000A108B10888EEC80E83E0D81EE11CF11C9E
:1001500081149104A104B10429F7FF90EF90DF907E
:10016000CF90BF90AF909F908F900895AF92BF9225
:10017000CF92DF92EF92FF920F931F93CF93DF9373
:100180006C017B018B01040F151FEB015E01AE18A2
:10019000BF08C017D10759F06991D601ED91FC91C4
:1001A0000190F081E02DC6010995892B79F7C501F1
:1001B000DF91CF911F910F91FF90EF90DF90CF9043
:1001C000BF90AF900895FC01538D448D252F30E0F2
:1001D000842F90E0821B930B541710F0CF96089554
:1001E00001970895FC01918D828D981761F0A28D81
:1001F000AE0FBF2FB11D5D968C91928D9F5F9F7347
:10020000928F90E008958FEF9FEF0895FC01918DFC
:10021000828D981731F0828DE80FF11D858D90E069
:1002200008958FEF9FEF0895FC01918D228D892F06
:1002300090E0805C9F4F821B91098F7399270895EE
:100240008FE791E00E94140121E0892B09F420E05E
:10025000822F089580E090E0892B29F00E942001F0
:1002600081110C9400000895FC01A48DA80FB92FF2
:10027000B11DA35ABF4F2C91848D90E001968F73CE
:100280009927848FA689B7892C93A089B1898C91ED
:10029000837080648C93938D848D981306C002883C
:1002A000F389E02D80818F7D80830895EF92FF9206
:1002B0000F931F93CF93DF93EC0181E0888F9B8D89
:1002C0008C8D98131AC0E889F989808185FF15C043
:1002D0009FB7F894EE89FF896083E889F989808166
:1002E0008370806480839FBF81E090E0DF91CF9135
:1002F0001F910F91FF90EF900895F62E0B8D10E057
:100300000F5F1F4F0F731127E02E8C8D8E110CC0C5
:100310000FB607FCFACFE889F989808185FFF5CF10
:10032000CE010E943401F1CFEB8DEC0FFD2FF11DBA
:10033000E35AFF4FF0829FB7F8940B8FEA89FB894D
:1003400080818062CFCFCF93DF93EC01888D8823AB
:10035000B9F0AA89BB89E889F9898C9185FD03C028
:10036000808186FD0DC00FB607FCF7CF8C9185FF0D
:10037000F2CF808185FFEDCFCE010E943401E9CF1D
:10038000DF91CF910895FC0101900020E9F73197AA
:10039000AF01481B590BBC018FE791E00C94B600EC
:1003A0001F920F920FB60F9211242F933F938F93AA
:1003B0009F93AF93BF938091770190917801A09123
:1003C0007901B0917A013091760123E0230F2D3726
:1003D00058F50196A11DB11D2093760180937701F8
:1003E00090937801A0937901B0937A0180917B0179
:1003F00090917C01A0917D01B0917E010196A11D9B
:10040000B11D80937B0190937C01A0937D01B093FB
:100410007E01BF91AF919F918F913F912F910F904E
:100420000FBE0F901F90189526E8230F0296A11D6E
:10043000B11DD2CF1F920F920FB60F9211242F939E
:100440003F934F935F936F937F938F939F93AF935C
:10045000BF93EF93FF938FE791E00E943401FF91E8
:10046000EF91BF91AF919F918F917F916F915F912C
:100470004F913F912F910F900FBE0F901F901895A5
:100480001F920F920FB60F9211242F938F939F9369
:10049000EF93FF93E0918F01F09190018081E091C3
:1004A0009501F091960182FD1BC090818091980189
:1004B0008F5F8F7320919901821741F0E09198012D
:1004C000F0E0E158FE4F958F80939801FF91EF91F6
:1004D0009F918F912F910F900FBE0F901F901895A5
:1004E0008081F4CFCF93DF93CDB7DEB7A1970FB65E
:1004F000F894DEBF0FBECDBF789484B5826084BD12
:1005000084B5816084BD85B5826085BD85B5816017
:1005100085BD80916E00816080936E001092810095
:100520008091810082608093810080918100816050
:100530008093810080918000816080938000809111
:10054000B10084608093B1008091B000816080939D
:10055000B00080917A00846080937A0080917A0064
:10056000826080937A0080917A00816080937A0023
:1005700080917A00806880937A001092C100E091A7
:100580008F01F091900182E08083E0918B01F091E6
:100590008C011082E0918D01F0918E018FEC8083AF
:1005A00010929701E0919301F091940186E080838D
:1005B000E0919101F0919201808180618083E091CE
:1005C0009101F0919201808188608083E091910196
:1005D000F0919201808180688083E0919101F09197
:1005E000920180818F7D808382E191E00E94C3012E
:1005F0008EE291E00E94C3018AE0482E512C612CCA
:10060000712C00E010E0AA24A394B12C8091740115
:1006100090917501892BE1F481E391E00E94C3017F
:100620008EE291E00E94C301B0927501A092740124
:1006300060ED77E080E090E00E94840001151105F4
:1006400029F30E942001882309F30E940000DECFD5
:1006500087E691E00E94C301C0907201D0907301BF
:100660000D2C000CEE08FF08F7FE37C06DE28FE797
:1006700091E00E94560122273327A9012C193D0938
:100680004E095F0919A2CE0181967C01CA01B90108
:10069000A30192010E94B003605DF70162937F01A4
:1006A000211531054105510589F7E114F10419F0CF
:1006B000C7010E94C3018EE291E00E94C3018091B4
:1006C000720190917301019690937301809372016E
:1006D00064E670E080E090E0AFCFA701960119A238
:1006E000CE0181967C01CA01B901A30192010E9449
:1006F000B003605DF70162937F012115310541056B
:10070000510589F7D2CFEFE7F1E01382128288EE2C
:1007100093E0A0E0B0E084839583A683B78384E070
:1007200091E09183808385EC90E09587848784ECC9
:1007300090E09787868780EC90E0918B808B81ECAE
:1007400090E0938B828B82EC90E0958B848B86EC8F
:1007500090E0978B868B118E128E138E148E0895D7
:10076000A1E21A2EAA1BBB1BFD010DC0AA1FBB1FB5
:10077000EE1FFF1FA217B307E407F50720F0A21B27
:10078000B30BE40BF50B661F771F881F991F1A9494
:1007900069F760957095809590959B01AC01BD01BE
:1007A000CF010895EE0FFF1F0590F491E02D0994FD
:0407B000F894FFCFEB
:1007B400000000005601B600E300A3011401F2009A
:1007C400060153454E534F5245532059204143543B
:1007D40055414452455320274953504327000D0A9D
:1007E400004553544520434F4449474F20534952F1
:1007F40056452050415241205645524946494341AD
:1008040052204C4120504552444944412044452003
:100814004441544F532E00506171756574653A20FC
:020824000000D2
:00000001FF
