:100000000C945E000C942B040C9404040C94860055
:100010000C9486000C9486000C9486000C94860048
:100020000C9486000C9486000C9486000C94860038
:100030000C9486000C9486000C9486000C94860028
:100040000C94BA030C9486000C9488030C946203FD
:100050000C9486000C9486000C9486000C94860008
:100060000C9486000C948600000000080002010039
:100070000003040700000000000000000000000072
:10008000250028002B0000000000240027002A0083
:10009000040404040404040402020202020203032E
:1000A0000303030301020408102040800102040836
:1000B00010200102040810205204CF0711241FBE93
:1000C000CFEFD8E0DEBFCDBF22E0A6E5B1E001C0B2
:1000D0001D92AC32B207E1F711E0A0E0B1E0E4EE2E
:1000E000F4E102C005900D92A635B107D9F710E0F2
:1000F000CDE5D0E004C02197FE010E946D08CC350B
:10010000D107C9F70E940E050C94650A0C940000F3
:1001100090E0FC01EC55FF4F249180579F4FFC016C
:100120008491882399F090E0880F991FFC01EA5789
:10013000FF4FA591B491FC01E458FF4F8591949134
:100140008FB7F894EC91E22BEC938FBF0895AF92A8
:10015000BF92CF92DF92EF92FF920F931F93CF93B4
:10016000DF936C017B018B01040F151FEB015E0116
:10017000AE18BF08C017D10759F06991D601ED91AB
:10018000FC910190F081E02DC6010995892B79F74A
:10019000C501DF91CF911F910F91FF90EF90DF90FC
:1001A000CF90BF90AF900895FC01538D448D252FC3
:1001B00030E0842F90E0821B930B541710F0CF9601
:1001C000089501970895FC01918D828D981761F033
:1001D000A28DAE0FBF2FB11D5D968C91928D9F5F4A
:1001E0009F73928F90E008958FEF9FEF0895FC0129
:1001F000918D828D981731F0828DE80FF11D858DDC
:1002000090E008958FEF9FEF0895FC01918D228D6E
:10021000892F90E0805C9F4F821B91098F739927F3
:10022000089582E691E00E94050121E0892B09F4FE
:1002300020E0822F089580E090E0892B29F00E9431
:10024000110181110C9400000895FC01A48DA80FE8
:10025000B92FB11DA35ABF4F2C91848D90E0019608
:100260008F739927848FA689B7892C93A089B18928
:100270008C91837080648C93938D848D981306C0C9
:100280000288F389E02D80818F7D80830895EF922D
:10029000FF920F931F93CF93DF93EC0181E0888F40
:1002A0009B8D8C8D98131AC0E889F989808185FF10
:1002B00015C09FB7F894EE89FF896083E889F989B2
:1002C00080818370806480839FBF81E090E0DF91B4
:1002D000CF911F910F91FF90EF900895F62E0B8D07
:1002E00010E00F5F1F4F0F731127E02E8C8D8E11C2
:1002F0000CC00FB607FCFACFE889F989808185FF29
:10030000F5CFCE010E942501F1CFEB8DEC0FFD2F33
:10031000F11DE35AFF4FF0829FB7F8940B8FEA89E3
:10032000FB8980818062CFCFCF93DF93EC01888DF2
:100330008823B9F0AA89BB89E889F9898C9185FD60
:1003400003C0808186FD0DC00FB607FCF7CF8C91EE
:1003500085FFF2CF808185FFEDCFCE010E94250180
:10036000E9CFDF91CF91089590E0FC01E859FF4F6C
:100370002491FC01EC55FF4F3491FC01E057FF4FF5
:10038000E491EE23C9F0222339F0233001F1A8F4DF
:10039000213019F1223029F1F0E0EE0FFF1FE4586F
:1003A000FF4FA591B4918FB7F894EC91611126C0DD
:1003B00030953E233C938FBF08952730A9F0283015
:1003C000C9F0243049F7809180008F7D03C080916F
:1003D00080008F7780938000DFCF84B58F7784BDD6
:1003E000DBCF84B58F7DFBCF8091B0008F7780937A
:1003F000B000D2CF8091B0008F7DF9CF3E2BDACF05
:100400003FB7F89480915B0190915C01A0915D01F0
:10041000B0915E0126B5A89B05C02F3F19F001964B
:10042000A11DB11D3FBFBA2FA92F982F8827BC014E
:10043000CD01620F711D811D911D42E0660F771F76
:10044000881F991F4A95D1F708958F929F92AF9276
:10045000BF92CF92DF92EF92FF920E9400024B0177
:100460005C018AE0C82ED12CE12CF12C0E94000204
:10047000681979098A099B09683E734081059105CD
:10048000A8F321E0C21AD108E108F10888EE880E2D
:1004900083E0981EA11CB11CC114D104E104F10435
:1004A00029F7FF90EF90DF90CF90BF90AF909F9093
:1004B0008F90089508950F931F93CF93DF93EC01CE
:1004C000062F142F60E088890E94B4019C858D85D9
:1004D0009CBD8DBD0EBD00000DB407FEFDCF8EB5D9
:1004E0001EBD00000DB407FEFDCF1EB561E088897A
:1004F0000E94B401812FDF91CF911F910F91089538
:1005000040E00C945B0208950F931F93CF93DF9309
:10051000EC01E881F9810084F185E02D0995892BB2
:10052000B1F06DE0CE010E948002082F60E0CE01A4
:100530000E948002182F402F6DE8CE010E945B02BE
:10054000812F90E0DF91CF911F910F9108958FEF50
:100550009FEFF8CFCF93DF93EC01E881F98100841E
:10056000F185E02D0995892B69F08A8D9B8D019687
:100570009B8F8A8F60E0CE010E94800290E0DF9125
:10058000CF9108958FEF9FEFFACFCF93DF93EC01D8
:1005900063E10E94800290E02A8D3B8D821B930BC9
:1005A000DF91CF910895AF92BF92CF92DF92FF92E9
:1005B0000F931F93CF93DF936C015B01EA0162E21B
:1005C0000E948002F82E90E09C012C0F3D1F2F3FCF
:1005D000310529F020F0CFEFD0E0C81BD90B850101
:1005E000AC0EBD1E0A151B0541F0F80141918F01AB
:1005F00060E8C6010E945B02F5CF4C2F4F0D62EA06
:10060000C6010E945B02CE01DF91CF911F910F9135
:10061000FF90DF90CF90BF90AF900895CF93DF937E
:100620001F92CDB7DEB76983DC01ED91FC910280AA
:10063000F381E02D41E050E0BE016F5F7F4F0995EF
:100640000F90DF91CF91089590E080E00895FC0134
:1006500001900020E9F73197AF01481B590BBC010D
:1006600082E691E00C94A700CF93DF93EC01809198
:10067000220290912302009759F020912402309198
:1006800025022C173D0720F081E0DF91CF910895DE
:10069000BE016F5F7F4F0E949809009789F0909389
:1006A000230280932202D0932502C093240220913A
:1006B000260230912702232B39F7FC011082E4CF68
:1006C00080E0E3CF1F920F920FB60F9211242F9369
:1006D0003F934F935F936F937F938F939F93AF93CA
:1006E000BF93EF93FF9382E691E00E942501FF9173
:1006F000EF91BF91AF919F918F917F916F915F919A
:100700004F913F912F910F900FBE0F901F90189512
:100710001F920F920FB60F9211242F938F939F93D6
:10072000EF93FF93E0917201F09173018081E0916A
:100730007801F091790182FD1BC0908180917B014D
:100740008F5F8F7320917C01821741F0E0917B01D4
:10075000F0E0EE59FE4F958F80937B01FF91EF9172
:100760009F918F912F910F900FBE0F901F90189512
:100770008081F4CF1F920F920FB60F9211242F9306
:100780003F938F939F93AF93BF9380915701909125
:100790005801A0915901B0915A013091560123E0BE
:1007A000230F2D3758F50196A11DB11D2093560139
:1007B0008093570190935801A0935901B0935A0127
:1007C00080915B0190915C01A0915D01B0915E010F
:1007D0000196A11DB11D80935B0190935C01A093D4
:1007E0005D01B0935E01BF91AF919F918F913F9159
:1007F0002F910F900FBE0F901F90189526E8230F92
:100800000296A11DB11DD2CF1F920F920FB60F926B
:1008100011242F933F934F935F936F937F938F9305
:100820009F93AF93BF93EF93FF93E0910201F091F9
:1008300003010995FF91EF91BF91AF919F918F9126
:100840007F916F915F914F913F912F910F900FBECC
:100850000F901F9018951F920F920FB60F921124B0
:100860002F933F934F935F936F937F938F939F93B8
:10087000AF93BF93EF93FF93E0910001F0910101DB
:100880000995FF91EF91BF91AF919F918F917F91CA
:100890006F915F914F913F912F910F900FBE0F90ED
:1008A0001F901895109265011092640188EE93E0F4
:1008B000A0E0B0E08093660190936701A093680187
:1008C000B09369018EE091E090936301809362019F
:1008D00085EC90E090936F0180936E0184EC90E042
:1008E000909371018093700180EC90E0909373017C
:1008F0008093720181EC90E0909375018093740174
:1009000082EC90E0909377018093760186EC90E002
:10091000909379018093780110927B0110927C0171
:1009200010927D0110927E01109203021092020239
:1009300080E291E0909301028093000280E5809331
:100940000C0281E080930D028FEF91E090930F02F3
:1009500080930E028AE090E090931102809310023F
:1009600089E090E0909313028093120282E090E07D
:10097000909315028093140210921602109217029F
:10098000109218021092190210921B0210921A0271
:1009900010921D0210921C0210921F0210921E0251
:1009A000109221021092200210920402109205026D
:1009B0001092060210920702109223021092220255
:1009C0001092250210922402109227021092260201
:1009D00090E080E00E9434032091220230912302B3
:1009E000811113C02115310519F0C9010E940F09A9
:1009F00010922302109222021092270210922602D5
:100A0000109225021092240208951092270210924B
:100A100026026EE371E0C9010C945E0ACF93DF9366
:100A2000CDB7DEB7A1970FB6F894DEBF0FBECDBF2E
:100A3000789484B5826084BD84B5816084BD85B5B9
:100A4000826085BD85B5816085BD80916E008160C5
:100A500080936E001092810080918100826080936B
:100A6000810080918100816080938100809180006D
:100A70008160809380008091B10084608093B10098
:100A80008091B00081608093B00080917A00846092
:100A900080937A0080917A00826080937A008091BE
:100AA0007A00816080937A0080917A0080688093D8
:100AB0007A001092C100E0917201F091730182E01E
:100AC0008083E0916E01F0916F011082E0917001DE
:100AD000F09171018FEC808310927A01E0917601A0
:100AE000F091770186E08083E0917401F0917501C7
:100AF000808180618083E0917401F0917501808133
:100B000088608083E0917401F09175018081806834
:100B10008083E0917401F091750180818F7D8083E5
:100B200083E00E9488008EE291E00E9427038CE31C
:100B300091E00E942703809110020E94880061E0EA
:100B4000809110020E94B4018091120290911302D0
:100B50008F3F980781F00E94880060E08091120228
:100B60000E94B4010E94250261E0809112020E945D
:100B7000B4010E9425021FB7F89480915F01811192
:100B800024C0EAE9F0E08491EEEAF0E09491E82FE5
:100B9000F0E0EE0FFF1FEA57FF4FA591B491EC91E3
:100BA000E92321F461E08AE00E94B4018AE00E9416
:100BB00088008CB580618CBD8CB580648CBD8DE067
:100BC0000E9488008BE00E94880080915F018F5F07
:100BD00080935F011FBF62E480E092E00E94800288
:100BE000823149F08FE391E00E9427038CE391E08A
:100BF0000E942703FFCF40E861E880E092E00E9476
:100C00005B0280E49EE0AFECB9E180931602909322
:100C10001702A0931802B09319024CE666E880E030
:100C200092E00E945B0240E467E880E092E00E946C
:100C30005B0240E068E880E092E00E945B0240E0F6
:100C40006EE880E092E00E945B0240E06FE880E0A6
:100C500092E00E945B026CE080E092E00E948002E1
:100C6000482F43606CE880E092E00E945B0244E021
:100C700066EA80E092E00E945B0244E86DEC80E06E
:100C800092E00E945B024BE26BE880E092E00E94FF
:100C90005B024FE869E880E092E00E945B0241E875
:100CA00061E880E092E00E945B028AE0482E512CCD
:100CB000612C712C9BE6A92E90E0B92E00E010E08B
:100CC00062E180E092E00E948002F82E10921D0204
:100CD00010921C026DE180E092E00E948002482F99
:100CE0004E7F6DE980E092E00E945B024F2D62E949
:100CF00080E092E00E945B02F6FE76C0F5FC74C0D4
:100D000010921B0210921A0280911C0290911D02F7
:100D100062E2892B09F463E180E092E00E948002A4
:100D2000E82EF12C60E180E092E00E948002482FE2
:100D30006DE880E092E00E945B0241E861E880E0BB
:100D400092E00E945B02EF2809F063C0C09060014E
:100D5000D09061010D2C000CEE08FF08F7FEC1C019
:100D60006DE282E691E00E94470122273327A90124
:100D70002C193D094E095F0919A2FE01B1967F01A8
:100D8000CA01B901A30192010E944B08605DF701FD
:100D900062937F01211531054105510589F7E11461
:100DA000F10419F0C7010E9427038CE391E00E942F
:100DB0002703E0906001F090610183E00E948800C9
:100DC000E114F10409F0A3C060E083E00E94B401E3
:100DD0000115110509F474CF0E941101882309F44B
:100DE0006FCF0E9400006CCF61E080E092E00E9433
:100DF0008002863809F4AACF40E06DE880E092E0F6
:100E00000E945B0246E861E880E092E00E945B029B
:100E10009DCF80E092E00E94C502892BB1F180E075
:100E200092E00E94AA0289831A82E0902602F09042
:100E300027028FEFE81AF80AC7010E9434038823BB
:100E400099F0209122023091230280912602909104
:100E50002702BE016F5F7F4F820F931F0E945E0AC1
:100E6000F0922702E09226028091220290912302C2
:100E7000009739F00E94D807709361016093600178
:100E8000C8CF60E070E0CB01F7CF90E080E00E9437
:100E900034032091220230912302811118C02115C0
:100EA000310519F0C9010E940F0910922302109216
:100EB000220210922702109226021092250210920E
:100EC00024026AE180E092E00E9480023FCF10920B
:100ED0002702109226026EE371E0C9010E945E0AA9
:100EE000F0CFA701960119A2CE0181967C01CA011B
:100EF000B901A30192010E944B08605DF701629362
:100F00007F01211531054105510589F748CFFFEFD4
:100F1000EF16F10411F461E058CFF50184918330AC
:100F200021F148F48130B9F08230D1F0F0E8EF16C9
:100F3000F1048CF749CF873011F1883041F18430CA
:100F4000A9F780918000806280938000F0928B00EE
:100F5000E0928A003DCF84B5806884BDE7BC38CF7D
:100F600084B5806284BDE8BC33CF80918000806806
:100F700080938000F0928900E092880029CF8091D0
:100F8000B00080688093B000E092B30021CF8091E0
:100F9000B00080628093B000E092B40019CF8091DD
:100FA000220290912302009711F00C940F090895EA
:100FB0001F93FC0199278827BC01E89411911032F6
:100FC000E9F3193010F01E30C8F31B3251F01D3216
:100FD00049F4689406C00E94FF07610F711D811DCE
:100FE000911D119110531A30B0F33EF490958095F5
:100FF000709561957F4F8F4F9F4F1F910895592F87
:10100000482F372F262F660F771F881F991F660FCF
:10101000771F881F991F620F731F841F951F660F0C
:10102000771F881F991F08952F923F924F925F92CA
:101030006F927F928F929F92AF92BF92CF92DF92E8
:10104000EF92FF920F931F93CF93DF93CDB7DEB74D
:10105000CA1BDB0B0FB6F894DEBF0FBECDBF0994E1
:101060002A88398848885F846E847D848C849B8438
:10107000AA84B984C884DF80EE80FD800C811B8146
:10108000AA81B981CE0FD11D0FB6F894DEBF0FBE75
:10109000CDBFED010895A1E21A2EAA1BBB1BFD01D5
:1010A0000DC0AA1FBB1FEE1FFF1FA217B307E40747
:1010B000F50720F0A21BB30BE40BF50B661F771F9F
:1010C000881F991F1A9469F760957095809590957F
:1010D0009B01AC01BD01CF010895EE0FFF1F0590EC
:1010E000F491E02D09940F931F93CF93DF938230F7
:1010F000910510F482E090E0E0912A02F0912B0239
:1011000030E020E0B0E0A0E0309799F421153105FF
:1011100009F44AC0281B390B24303105D8F58A81DF
:101120009B816115710589F1FB0193838283FE0127
:1011300011C0408151810281138148175907E0F0A5
:101140004817590799F4109761F012960C9312976B
:1011500013961C933296CF01DF91CF911F910F917F
:10116000089500932A0210932B02F4CF2115310524
:1011700051F04217530738F0A901DB019A01BD0174
:10118000DF01F801C1CFEF01F9CF90932B028093DB
:101190002A02CDCFFE01E20FF31F819391932250DB
:1011A000310939832883D7CF209128023091290231
:1011B000232B41F42091060130910701309329023D
:1011C0002093280220910401309105012115310559
:1011D00041F42DB73EB74091080150910901241BFD
:1011E000350BE0912802F0912902E217F307A0F4F1
:1011F0002E1B3F0B2817390778F0AC014E5F5F4F6D
:101200002417350748F04E0F5F1F50932902409373
:101210002802819391939FCFF0E0E0E09CCFCF93A1
:10122000DF930097E9F0FC01329713821282A091BC
:101230002A02B0912B02ED0130E020E01097A1F4DA
:1012400020813181820F931F209128023091290241
:101250002817390709F061C0F0932902E0932802AA
:10126000DF91CF910895EA01CE17DF07E8F54A81B3
:101270005B819E0141155105B1F7E901FB83EA83CA
:1012800049915991C40FD51FEC17FD0761F4808176
:1012900091810296840F951FE90199838883828149
:1012A00093819B838A83F0E0E0E012968D919C917C
:1012B00013970097B9F52D913C911197CD010296A6
:1012C000820F931F20912802309129022817390795
:1012D00039F6309751F510922B0210922A02B093F2
:1012E0002902A0932802BCCFD383C28340815181BD
:1012F000840F951FC817D90761F44E5F5F4F88812F
:101300009981480F591F518340838A819B81938320
:1013100082832115310509F0B0CFF0932B02E093C1
:101320002A029ECFFD01DC01C0CF13821282D7CFEB
:10133000B0E0A0E0EEE9F9E00C9416088C0100970B
:1013400051F4CB010E9473088C01C801CDB7DEB700
:10135000E0E10C943208FC01E60FF71F9C012250DB
:101360003109E217F30708F49DC0D901CD91DC9152
:101370001197C617D70798F0C530D10530F3CE01C5
:1013800004978617970708F3C61BD70B2297C193BC
:10139000D1936D937C93CF010E940F09D6CF5B014F
:1013A000AC1ABD0A4C018C0E9D1EA0912A02B09170
:1013B0002B02512C412CF12CE12C109731F580910E
:1013C0002802909129028815990509F05CC04616FB
:1013D000570608F058C080910401909105010097CC
:1013E00041F48DB79EB74091080150910901841BCB
:1013F000950BE817F90708F055C0F0932902E09320
:101400002802F90171836083A0CF8D919C9111977F
:1014100012966C90129713967C901397A815B905A5
:1014200059F56C0142E0C40ED11CCA14DB0420F152
:10143000AC014A195B09DA011296159780F06282B5
:10144000738251834083D9016D937C93E114F1043D
:1014500071F0D7011396FC93EE93129776CF2296F4
:101460008C0F9D1FF90191838083F301EFCFF093DF
:101470002B02E0932A0269CF4816590608F42C0182
:101480007D01D3019ACFCB010E9473087C010097A4
:1014900049F0AE01B8010E94550AC8010E940F0927
:1014A000870153CF10E000E050CFFB01DC0102C008
:1014B00001900D9241505040D8F70895FB01DC0196
:1014C00001900D920020E1F7089510E0CDE5D0E005
:1014D00004C0FE010E946D082196CE35D107C9F7E0
:0414E000F894FFCFAE
:1014E4005A025A0200002C0280000000000047014A
:1014F400A700D40094010501E300F70000000000F8
:101504000E03D30224038302C502AA0284024C6F91
:101514005261205265636569766572000D0A005355
:1015240074617274696E67204C6F526120666169E0
:061534006C65642100005B
:00000001FF
