:100000000C945D000C940D040C94E6030C94850094
:100010000C9485000C9485000C9485000C9485004C
:100020000C9485000C9485000C9485000C9485003C
:100030000C9485000C9485000C9485000C9485002C
:100040000C949C030C9485000C946A030C94440358
:100050000C9485000C9485000C9485000C9485000C
:100060000C9485000C9485000000000025002800F9
:100070002B0000000008000201000003040700003C
:1000800000000000000000000000240027002A00FB
:10009000010204081020408001020408102001021F
:1000A00004081020040404040404040402020202EC
:1000B0000202030303030303340411241FBECFEF22
:1000C000D8E0DEBFCDBF11E0A0E0B1E0E8E1FEE0A6
:1000D00002C005900D92AE34B107D9F722E0AEE42C
:1000E000B1E001C01D92A831B207E1F710E0CDE503
:1000F000D0E004C02197FE010E940407CC35D1074F
:10010000C9F70E948D040C940A070C940000AF926A
:10011000BF92CF92DF92EF92FF920F931F93CF93F4
:10012000DF936C017B018B01040F151FEB015E0156
:10013000AE18BF08C017D10759F06991D601ED91EB
:10014000FC910190F081E02DC6010995892B79F78A
:10015000C501DF91CF911F910F91FF90EF90DF903C
:10016000CF90BF90AF900895FC01538D448D252F03
:1001700030E0842F90E0821B930B541710F0CF9641
:10018000089501970895FC01918D828D981761F073
:10019000A28DAE0FBF2FB11D5D968C91928D9F5F8A
:1001A0009F73928F90E008958FEF9FEF0895FC0169
:1001B000918D828D981731F0828DE80FF11D858D1C
:1001C00090E008958FEF9FEF0895FC01918D228DAF
:1001D000892F90E0805C9F4F821B91098F73992734
:1001E000089588E591E00E94E50021E0892B09F45B
:1001F00020E0822F089580E090E0892B29F00E9472
:10020000F10081110C9400000895FC01A48DA80F49
:10021000B92FB11DA35ABF4F2C91848D90E0019648
:100220008F739927848FA689B7892C93A089B18968
:100230008C91837080648C93938D848D981306C009
:100240000288F389E02D80818F7D80830895EF926D
:10025000FF920F931F93CF93DF93EC0181E0888F80
:100260009B8D8C8D98131AC0E889F989808185FF50
:1002700015C09FB7F894EE89FF896083E889F989F2
:1002800080818370806480839FBF81E090E0DF91F4
:10029000CF911F910F91FF90EF900895F62E0B8D47
:1002A00010E00F5F1F4F0F731127E02E8C8D8E1102
:1002B0000CC00FB607FCFACFE889F989808185FF69
:1002C000F5CFCE010E940501F1CFEB8DEC0FFD2F94
:1002D000F11DE35AFF4FF0829FB7F8940B8FEA8924
:1002E000FB8980818062CFCFCF93DF93EC01888D33
:1002F0008823B9F0AA89BB89E889F9898C9185FDA1
:1003000003C0808186FD0DC00FB607FCF7CF8C912E
:1003100085FFF2CF808185FFEDCFCE010E940501E0
:10032000E9CFDF91CF91089590E0FC01EE58FF4FA7
:100330002491FC01E057FF4F3491FC01EC55FF4F35
:10034000E491EE23C9F0222339F0233001F1A8F41F
:10035000213019F1223029F1F0E0EE0FFF1FE859AA
:10036000FF4FA591B4918FB7F894EC91611126C01D
:1003700030953E233C938FBF08952730A9F0283055
:10038000C9F0243049F7809180008F7D03C08091AF
:1003900080008F7780938000DFCF84B58F7784BD16
:1003A000DBCF84B58F7DFBCF8091B0008F778093BA
:1003B000B000D2CF8091B0008F7DF9CF3E2BDACF45
:1003C000CF93DF9390E0FC01E057FF4F24918C55D1
:1003D0009F4FFC0184918823D1F090E0880F991FF2
:1003E000FC01EA57FF4FA591B491FC01E859FF4F7A
:1003F000C591D49161110EC09FB7F8948C91E22FF2
:10040000E0958E238C932881E223E8839FBFDF91C0
:10041000CF9108958FB7F894EC91E22BEC938FBFB6
:10042000F6CF3FB7F8948091530190915401A09179
:100430005501B091560126B5A89B05C02F3F19F074
:100440000196A11DB11D3FBFBA2FA92F982F882754
:10045000BC01CD01620F711D811D911D42E0660F2F
:10046000771F881F991F4A95D1F708958F929F9201
:10047000AF92BF92CF92DF92EF92FF924B015C015D
:100480000E9411026B017C010E9411026C197D090E
:100490008E099F09683E734081059105A8F321E00C
:1004A000821A9108A108B10888EEC80E83E0D81E10
:1004B000E11CF11C81149104A104B10429F7FF90FF
:1004C000EF90DF90CF90BF90AF909F908F90089566
:1004D00008950F931F93CF93DF93EC01062F142FF2
:1004E00060E088890E9494019C858D859CBD8DBDAE
:1004F0000EBD00000DB407FEFDCF8EB51EBD000081
:100500000DB407FEFDCF1EB561E088890E949401FD
:10051000812FDF91CF911F910F91089540E00C94AE
:10052000690208950F931F93CF93DF93EC01E88145
:10053000F9810084F185E02D0995892BB1F06DE0FA
:10054000CE010E948E02082F60E0CE010E948E0232
:10055000182F402F6DE8CE010E946902812F90E094
:10056000DF91CF911F910F9108958FEF9FEFF8CFFB
:10057000CF93DF93EC01E881F9810084F185E02DD0
:100580000995892B69F08A8D9B8D01969B8F8A8FA7
:1005900060E0CE010E948E0290E0DF91CF9108953D
:1005A0008FEF9FEFFACFCF93DF93EC0163E10E94CF
:1005B0008E0290E02A8D3B8D821B930BDF91CF91B1
:1005C0000895AF92BF92CF92DF92FF920F931F9345
:1005D000CF93DF936C015B01EA0162E20E948E021D
:1005E000F82E90E09C012C0F3D1F2F3F310529F084
:1005F00020F0CFEFD0E0C81BD90B8501AC0EBD1E9B
:100600000A151B0541F0F80141918F0160E8C60110
:100610000E946902F5CF4C2F4F0D62EAC6010E947D
:100620006902CE01DF91CF911F910F91FF90DF9072
:10063000CF90BF90AF900895CF93DF931F92CDB727
:10064000DEB76983DC01ED91FC910280F381E02D3E
:1006500041E050E0BE016F5F7F4F09950F90DF9141
:10066000CF91089590E080E00895FB010190002073
:10067000E9F73197AF01461B570BDC01ED91FC9177
:100680000280F381E02D09941F920F920FB60F9212
:1006900011242F933F934F935F936F937F938F9387
:1006A0009F93AF93BF93EF93FF9388E591E00E94F0
:1006B0000501FF91EF91BF91AF919F918F917F9134
:1006C0006F915F914F913F912F910F900FBE0F90BF
:1006D0001F9018951F920F920FB60F9211242F930F
:1006E0008F939F93EF93FF93E0916801F0916901DD
:1006F0008081E0916E01F0916F0182FD1BC09081BD
:10070000809171018F5F8F7320917201821741F088
:10071000E0917101F0E0E85AFE4F958F80937101EE
:10072000FF91EF919F918F912F910F900FBE0F909E
:100730001F9018958081F4CF1F920F920FB60F92E1
:1007400011242F933F938F939F93AF93BF938091E7
:100750004F0190915001A0915101B09152013091FF
:100760004E0123E0230F2D3758F50196A11DB11D31
:1007700020934E0180934F0190935001A09351011B
:10078000B09352018091530190915401A091550171
:10079000B09156010196A11DB11D80935301909314
:1007A0005401A0935501B0935601BF91AF919F9111
:1007B0008F913F912F910F900FBE0F901F90189522
:1007C00026E8230F0296A11DB11DD2CF1F920F92D2
:1007D0000FB60F9211242F933F934F935F936F9314
:1007E0007F938F939F93AF93BF93EF93FF93E0918A
:1007F0000201F09103010995FF91EF91BF91AF9133
:100800009F918F917F916F915F914F913F912F9128
:100810000F900FBE0F901F9018951F920F920FB65A
:100820000F9211242F933F934F935F936F937F9376
:100830008F939F93AF93BF93EF93FF93E09100014A
:10084000F09101010995FF91EF91BF91AF919F91B7
:100850008F917F916F915F914F913F912F910F9069
:100860000FBE0F901F901895E8E5F1E013821282F9
:1008700088EE93E0A0E0B0E084839583A683B783FD
:1008800088E091E09183808385EC90E09587848770
:1008900084EC90E09787868780EC90E0918B808B4A
:1008A00081EC90E0938B828B82EC90E0958B848B33
:1008B00086EC90E0978B868B118E128E138E148EA1
:1008C000E6EFF1E0138212828AE191E09183808366
:1008D00080E5848781E0858785EF91E0978786872B
:1008E0008AE090E0918B808B89E090E0938B828B03
:1008F00082E090E0958B848B168A178A108E118E79
:10090000138E128E158E148E178E168E11A210A2B3
:1009100014821582168217820895CF93DF93CDB784
:10092000DEB7A1970FB6F894DEBF0FBECDBF7894A7
:1009300084B5826084BD84B5816084BD85B58260E4
:1009400085BD85B5816085BD80916E008160809395
:100950006E001092810080918100826080938100FE
:10096000809181008160809381008091800081600E
:10097000809380008091B10084608093B100809169
:10098000B00081608093B00080917A008460809391
:100990007A0080917A00826080937A0080917A0058
:1009A000816080937A0080917A00806880937A00D9
:1009B0001092C100E0916801F091690182E08083AA
:1009C000E0916401F09165011082E0916601F0917F
:1009D00067018FEC808310927001E0916C01F091BF
:1009E0006D0186E08083E0916A01F0916B01808166
:1009F00080618083E0916A01F0916B018081886061
:100A00008083E0916A01F0916B018081806880832E
:100A1000E0916A01F0916B0180818F7D808360E0BD
:100A20008EE00E94E00168E271E088E591E00E94BA
:100A3000350364E371E088E591E00E94350361E0ED
:100A4000809106020E94E00161E0809106020E940E
:100A5000940180910802909109028F3F9807C9F094
:100A600061E00E94E00160E0809108020E94940130
:100A70006AE070E080E090E00E94360261E08091E0
:100A800008020E9494016AE070E080E090E00E9419
:100A900036021FB7F89480915701811127C0EEEA02
:100AA000F0E08491EAE9F0E09491E82FF0E0EE0FB5
:100AB000FF1FEA57FF4FA591B491EC91E92321F470
:100AC00061E08AE00E94940161E08AE00E94E00116
:100AD0008CB580618CBD8CB580648CBD61E08DE08F
:100AE0000E94E00161E08BE00E94E00180915701EB
:100AF0008F5F809357011FBF62E486EF91E00E94F1
:100B00008E02823169F067E371E088E591E00E942E
:100B1000350364E371E088E591E00E943503FFCF7F
:100B200040E861E886EF91E00E94690280E49EE07F
:100B3000AFECB9E180930C0290930D02A0930E02EA
:100B4000B0930F024CE666E886EF91E00E946902DE
:100B500040E467E886EF91E00E94690240E068E8BF
:100B600086EF91E00E94690240E06EE886EF91E036
:100B70000E94690240E06FE886EF91E00E946902FE
:100B80006CE086EF91E00E948E02482F43606CE893
:100B900086EF91E00E94690244E066EA86EF91E008
:100BA0000E94690244E86DEC86EF91E00E946902C0
:100BB0004BE26BE886EF91E00E9469024FE869E83A
:100BC00086EF91E00E94690241E861E886EF91E0DA
:100BD0000E94690280E4382E412C94E0592E612C49
:100BE000712C2AE0C22ED12CE12CF12C30927C0009
:100BF00080917A00806480937A0080917A0086FDEB
:100C0000FCCF80917800A0917900BA2FA82F2FEF08
:100C100030E00E94FD06A30192010E94AD06490149
:100C20005A0161E086EF91E00E948E02837083306A
:100C300079F162E186EF91E00E948E0283FF06C0A7
:100C400048E062E986EF91E00E94690241E861E8CC
:100C500086EF91E00E946902109213021092120234
:100C60006DE186EF91E00E948E02482F4E7F6DE984
:100C700086EF91E00E94690240E06DE886EF91E026
:100C80000E94690240E062EA86EF91E00E946902F8
:100C9000B7FE4DC06DE286EF91E00E941C03222753
:100CA0003327A901281939094A095B0919A28E01BC
:100CB0000F5D1F4FCA01B901A70196010E94CC0622
:100CC000605DF80162938F012115310541055105E1
:100CD00089F70115110529F0B80186EF91E00E940E
:100CE000350343E861E886EF91E00E94690262E122
:100CF00086EF91E00E948E0283FFF9CF48E062E91F
:100D000086EF91E00E94690262E370E080E090E08B
:100D10000E94360280E090E0892B09F467CF0E94A0
:100D2000F100882309F462CF0E9400005FCFA50183
:100D3000940119A28E010F5D1F4FCA01B901A701CD
:100D400096010E94CC06605DF80162938F01211527
:100D500031054105510589F7BCCF052E97FB1EF4DF
:100D600000940E94C40657FD07D00E94CC0607FCE1
:100D700003D04EF40C94C4065095409530952195BF
:100D80003F4F4F4F5F4F08959095809570956195B7
:100D90007F4F8F4F9F4F0895A1E21A2EAA1BBB1BB6
:100DA000FD010DC0AA1FBB1FEE1FFF1FA217B30737
:100DB000E407F50720F0A21BB30BE40BF50B661F4D
:100DC000771F881F991F1A9469F760957095809511
:100DD00090959B01AC01BD01CF010895A29FB00188
:100DE000B39FC001A39F700D811D1124911DB29F5F
:100DF000700D811D1124911D08950E94EE06B7FF0C
:100E00000895821B930B0895EE0FFF1F0590F49138
:080E1000E02D0994F894FFCFD6
:100E1800680268020000000027018700B40074011E
:100E2800E500C300D700000000001C03E102320304
:100E38009102D302B80292024C6F52612053656E40
:100E4800646572000D0A005374617274696E6720DC
:0E0E58004C6F5261206661696C656421000078
:00000001FF
